{
    "contractName": "TetherToken",
    "abi": [
        {
            "constant": true,
            "inputs": [],
            "name": "name",
            "outputs": [
                {
                    "name": "",
                    "type": "string"
                }
            ],
            "payable": false,
            "stateMutability": "view",
            "type": "function"
        },
        {
            "constant": false,
            "inputs": [
                {
                    "name": "_upgradedAddress",
                    "type": "address"
                }
            ],
            "name": "deprecate",
            "outputs": [],
            "payable": false,
            "stateMutability": "nonpayable",
            "type": "function"
        },
        {
            "constant": false,
            "inputs": [
                {
                    "name": "_spender",
                    "type": "address"
                },
                {
                    "name": "_value",
                    "type": "uint256"
                }
            ],
            "name": "approve",
            "outputs": [],
            "payable": false,
            "stateMutability": "nonpayable",
            "type": "function"
        },
        {
            "constant": true,
            "inputs": [],
            "name": "deprecated",
            "outputs": [
                {
                    "name": "",
                    "type": "bool"
                }
            ],
            "payable": false,
            "stateMutability": "view",
            "type": "function"
        },
        {
            "constant": false,
            "inputs": [
                {
                    "name": "_evilUser",
                    "type": "address"
                }
            ],
            "name": "addBlackList",
            "outputs": [],
            "payable": false,
            "stateMutability": "nonpayable",
            "type": "function"
        },
        {
            "constant": true,
            "inputs": [],
            "name": "totalSupply",
            "outputs": [
                {
                    "name": "",
                    "type": "uint256"
                }
            ],
            "payable": false,
            "stateMutability": "view",
            "type": "function"
        },
        {
            "constant": false,
            "inputs": [
                {
                    "name": "_from",
                    "type": "address"
                },
                {
                    "name": "_to",
                    "type": "address"
                },
                {
                    "name": "_value",
                    "type": "uint256"
                }
            ],
            "name": "transferFrom",
            "outputs": [],
            "payable": false,
            "stateMutability": "nonpayable",
            "type": "function"
        },
        {
            "constant": true,
            "inputs": [],
            "name": "upgradedAddress",
            "outputs": [
                {
                    "name": "",
                    "type": "address"
                }
            ],
            "payable": false,
            "stateMutability": "view",
            "type": "function"
        },
        {
            "constant": true,
            "inputs": [
                {
                    "name": "",
                    "type": "address"
                }
            ],
            "name": "balances",
            "outputs": [
                {
                    "name": "",
                    "type": "uint256"
                }
            ],
            "payable": false,
            "stateMutability": "view",
            "type": "function"
        },
        {
            "constant": true,
            "inputs": [],
            "name": "decimals",
            "outputs": [
                {
                    "name": "",
                    "type": "uint256"
                }
            ],
            "payable": false,
            "stateMutability": "view",
            "type": "function"
        },
        {
            "constant": true,
            "inputs": [],
            "name": "maximumFee",
            "outputs": [
                {
                    "name": "",
                    "type": "uint256"
                }
            ],
            "payable": false,
            "stateMutability": "view",
            "type": "function"
        },
        {
            "constant": true,
            "inputs": [],
            "name": "_totalSupply",
            "outputs": [
                {
                    "name": "",
                    "type": "uint256"
                }
            ],
            "payable": false,
            "stateMutability": "view",
            "type": "function"
        },
        {
            "constant": false,
            "inputs": [],
            "name": "unpause",
            "outputs": [],
            "payable": false,
            "stateMutability": "nonpayable",
            "type": "function"
        },
        {
            "constant": true,
            "inputs": [
                {
                    "name": "_maker",
                    "type": "address"
                }
            ],
            "name": "getBlackListStatus",
            "outputs": [
                {
                    "name": "",
                    "type": "bool"
                }
            ],
            "payable": false,
            "stateMutability": "view",
            "type": "function"
        },
        {
            "constant": true,
            "inputs": [
                {
                    "name": "",
                    "type": "address"
                },
                {
                    "name": "",
                    "type": "address"
                }
            ],
            "name": "allowed",
            "outputs": [
                {
                    "name": "",
                    "type": "uint256"
                }
            ],
            "payable": false,
            "stateMutability": "view",
            "type": "function"
        },
        {
            "constant": true,
            "inputs": [],
            "name": "paused",
            "outputs": [
                {
                    "name": "",
                    "type": "bool"
                }
            ],
            "payable": false,
            "stateMutability": "view",
            "type": "function"
        },
        {
            "constant": true,
            "inputs": [
                {
                    "name": "who",
                    "type": "address"
                }
            ],
            "name": "balanceOf",
            "outputs": [
                {
                    "name": "",
                    "type": "uint256"
                }
            ],
            "payable": false,
            "stateMutability": "view",
            "type": "function"
        },
        {
            "constant": false,
            "inputs": [],
            "name": "pause",
            "outputs": [],
            "payable": false,
            "stateMutability": "nonpayable",
            "type": "function"
        },
        {
            "constant": true,
            "inputs": [],
            "name": "getOwner",
            "outputs": [
                {
                    "name": "",
                    "type": "address"
                }
            ],
            "payable": false,
            "stateMutability": "view",
            "type": "function"
        },
        {
            "constant": true,
            "inputs": [],
            "name": "owner",
            "outputs": [
                {
                    "name": "",
                    "type": "address"
                }
            ],
            "payable": false,
            "stateMutability": "view",
            "type": "function"
        },
        {
            "constant": true,
            "inputs": [],
            "name": "symbol",
            "outputs": [
                {
                    "name": "",
                    "type": "string"
                }
            ],
            "payable": false,
            "stateMutability": "view",
            "type": "function"
        },
        {
            "constant": false,
            "inputs": [
                {
                    "name": "_to",
                    "type": "address"
                },
                {
                    "name": "_value",
                    "type": "uint256"
                }
            ],
            "name": "transfer",
            "outputs": [],
            "payable": false,
            "stateMutability": "nonpayable",
            "type": "function"
        },
        {
            "constant": false,
            "inputs": [
                {
                    "name": "newBasisPoints",
                    "type": "uint256"
                },
                {
                    "name": "newMaxFee",
                    "type": "uint256"
                }
            ],
            "name": "setParams",
            "outputs": [],
            "payable": false,
            "stateMutability": "nonpayable",
            "type": "function"
        },
        {
            "constant": false,
            "inputs": [
                {
                    "name": "amount",
                    "type": "uint256"
                }
            ],
            "name": "issue",
            "outputs": [],
            "payable": false,
            "stateMutability": "nonpayable",
            "type": "function"
        },
        {
            "constant": false,
            "inputs": [
                {
                    "name": "amount",
                    "type": "uint256"
                }
            ],
            "name": "redeem",
            "outputs": [],
            "payable": false,
            "stateMutability": "nonpayable",
            "type": "function"
        },
        {
            "constant": true,
            "inputs": [
                {
                    "name": "_owner",
                    "type": "address"
                },
                {
                    "name": "_spender",
                    "type": "address"
                }
            ],
            "name": "allowance",
            "outputs": [
                {
                    "name": "remaining",
                    "type": "uint256"
                }
            ],
            "payable": false,
            "stateMutability": "view",
            "type": "function"
        },
        {
            "constant": true,
            "inputs": [],
            "name": "basisPointsRate",
            "outputs": [
                {
                    "name": "",
                    "type": "uint256"
                }
            ],
            "payable": false,
            "stateMutability": "view",
            "type": "function"
        },
        {
            "constant": true,
            "inputs": [
                {
                    "name": "",
                    "type": "address"
                }
            ],
            "name": "isBlackListed",
            "outputs": [
                {
                    "name": "",
                    "type": "bool"
                }
            ],
            "payable": false,
            "stateMutability": "view",
            "type": "function"
        },
        {
            "constant": false,
            "inputs": [
                {
                    "name": "_clearedUser",
                    "type": "address"
                }
            ],
            "name": "removeBlackList",
            "outputs": [],
            "payable": false,
            "stateMutability": "nonpayable",
            "type": "function"
        },
        {
            "constant": true,
            "inputs": [],
            "name": "MAX_UINT",
            "outputs": [
                {
                    "name": "",
                    "type": "uint256"
                }
            ],
            "payable": false,
            "stateMutability": "view",
            "type": "function"
        },
        {
            "constant": false,
            "inputs": [
                {
                    "name": "newOwner",
                    "type": "address"
                }
            ],
            "name": "transferOwnership",
            "outputs": [],
            "payable": false,
            "stateMutability": "nonpayable",
            "type": "function"
        },
        {
            "constant": false,
            "inputs": [
                {
                    "name": "_blackListedUser",
                    "type": "address"
                }
            ],
            "name": "destroyBlackFunds",
            "outputs": [],
            "payable": false,
            "stateMutability": "nonpayable",
            "type": "function"
        },
        {
            "inputs": [
                {
                    "name": "_initialSupply",
                    "type": "uint256"
                },
                {
                    "name": "_name",
                    "type": "string"
                },
                {
                    "name": "_symbol",
                    "type": "string"
                },
                {
                    "name": "_decimals",
                    "type": "uint256"
                }
            ],
            "payable": false,
            "stateMutability": "nonpayable",
            "type": "constructor"
        },
        {
            "anonymous": false,
            "inputs": [
                {
                    "indexed": false,
                    "name": "amount",
                    "type": "uint256"
                }
            ],
            "name": "Issue",
            "type": "event"
        },
        {
            "anonymous": false,
            "inputs": [
                {
                    "indexed": false,
                    "name": "amount",
                    "type": "uint256"
                }
            ],
            "name": "Redeem",
            "type": "event"
        },
        {
            "anonymous": false,
            "inputs": [
                {
                    "indexed": false,
                    "name": "newAddress",
                    "type": "address"
                }
            ],
            "name": "Deprecate",
            "type": "event"
        },
        {
            "anonymous": false,
            "inputs": [
                {
                    "indexed": false,
                    "name": "feeBasisPoints",
                    "type": "uint256"
                },
                {
                    "indexed": false,
                    "name": "maxFee",
                    "type": "uint256"
                }
            ],
            "name": "Params",
            "type": "event"
        },
        {
            "anonymous": false,
            "inputs": [
                {
                    "indexed": false,
                    "name": "_blackListedUser",
                    "type": "address"
                },
                {
                    "indexed": false,
                    "name": "_balance",
                    "type": "uint256"
                }
            ],
            "name": "DestroyedBlackFunds",
            "type": "event"
        },
        {
            "anonymous": false,
            "inputs": [
                {
                    "indexed": false,
                    "name": "_user",
                    "type": "address"
                }
            ],
            "name": "AddedBlackList",
            "type": "event"
        },
        {
            "anonymous": false,
            "inputs": [
                {
                    "indexed": false,
                    "name": "_user",
                    "type": "address"
                }
            ],
            "name": "RemovedBlackList",
            "type": "event"
        },
        {
            "anonymous": false,
            "inputs": [
                {
                    "indexed": true,
                    "name": "owner",
                    "type": "address"
                },
                {
                    "indexed": true,
                    "name": "spender",
                    "type": "address"
                },
                {
                    "indexed": false,
                    "name": "value",
                    "type": "uint256"
                }
            ],
            "name": "Approval",
            "type": "event"
        },
        {
            "anonymous": false,
            "inputs": [
                {
                    "indexed": true,
                    "name": "from",
                    "type": "address"
                },
                {
                    "indexed": true,
                    "name": "to",
                    "type": "address"
                },
                {
                    "indexed": false,
                    "name": "value",
                    "type": "uint256"
                }
            ],
            "name": "Transfer",
            "type": "event"
        },
        {
            "anonymous": false,
            "inputs": [],
            "name": "Pause",
            "type": "event"
        },
        {
            "anonymous": false,
            "inputs": [],
            "name": "Unpause",
            "type": "event"
        }
    ],
    "bytecode": "60606040526000805460a060020a60ff0219168155600381905560045534156200002857600080fd5b604051620017d5380380620017d5833981016040528080519190602001805182019190602001805182019190602001805160008054600160a060020a03191633600160a060020a0316179055600186905591506007905083805162000092929160200190620000dd565b506008828051620000a8929160200190620000dd565b50600955505060008054600160a060020a0316815260026020526040902055600a805460a060020a60ff021916905562000182565b828054600181600116156101000203166002900490600052602060002090601f016020900481019282601f106200012057805160ff191683800117855562000150565b8280016001018555821562000150579182015b828111156200015057825182559160200191906001019062000133565b506200015e92915062000162565b5090565b6200017f91905b808211156200015e576000815560010162000169565b90565b61164380620001926000396000f30060606040526004361061017c5763ffffffff60e060020a60003504166306fdde0381146101815780630753c30c1461020b578063095ea7b31461022c5780630e136b191461024e5780630ecb93c01461027557806318160ddd1461029457806323b872dd146102b957806326976e3f146102e157806327e235e314610310578063313ce5671461032f57806335390714146103425780633eaaf86b146103555780633f4ba83a1461036857806359bf1abe1461037b5780635c6581651461039a5780635c975abb146103bf57806370a08231146103d25780638456cb59146103f1578063893d20e8146104045780638da5cb5b1461041757806395d89b411461042a578063a9059cbb1461043d578063c0324c771461045f578063cc872b6614610478578063db006a751461048e578063dd62ed3e146104a4578063dd644f72146104c9578063e47d6060146104dc578063e4997dc5146104fb578063e5b5019a1461051a578063f2fde38b1461052d578063f3bdc2281461054c575b600080fd5b341561018c57600080fd5b61019461056b565b60405160208082528190810183818151815260200191508051906020019080838360005b838110156101d05780820151838201526020016101b8565b50505050905090810190601f1680156101fd5780820380516001836020036101000a031916815260200191505b509250505060405180910390f35b341561021657600080fd5b61022a600160a060020a0360043516610609565b005b341561023757600080fd5b61022a600160a060020a03600435166024356106ac565b341561025957600080fd5b610261610759565b604051901515815260200160405180910390f35b341561028057600080fd5b61022a600160a060020a0360043516610769565b341561029f57600080fd5b6102a76107e9565b60405190815260200160405180910390f35b34156102c457600080fd5b61022a600160a060020a0360043581169060243516604435610870565b34156102ec57600080fd5b6102f4610934565b604051600160a060020a03909116815260200160405180910390f35b341561031b57600080fd5b6102a7600160a060020a0360043516610943565b341561033a57600080fd5b6102a7610955565b341561034d57600080fd5b6102a761095b565b341561036057600080fd5b6102a7610961565b341561037357600080fd5b61022a610967565b341561038657600080fd5b610261600160a060020a03600435166109e6565b34156103a557600080fd5b6102a7600160a060020a0360043581169060243516610a08565b34156103ca57600080fd5b610261610a25565b34156103dd57600080fd5b6102a7600160a060020a0360043516610a35565b34156103fc57600080fd5b61022a610ad5565b341561040f57600080fd5b6102f4610b59565b341561042257600080fd5b6102f4610b68565b341561043557600080fd5b610194610b77565b341561044857600080fd5b61022a600160a060020a0360043516602435610be2565b341561046a57600080fd5b61022a600435602435610cbb565b341561048357600080fd5b61022a600435610d51565b341561049957600080fd5b61022a600435610e00565b34156104af57600080fd5b6102a7600160a060020a0360043581169060243516610eb1565b34156104d457600080fd5b6102a7610f5c565b34156104e757600080fd5b610261600160a060020a0360043516610f62565b341561050657600080fd5b61022a600160a060020a0360043516610f77565b341561052557600080fd5b6102a7610ff4565b341561053857600080fd5b61022a600160a060020a0360043516610ffa565b341561055757600080fd5b61022a600160a060020a0360043516611050565b60078054600181600116156101000203166002900480601f0160208091040260200160405190810160405280929190818152602001828054600181600116156101000203166002900480156106015780601f106105d657610100808354040283529160200191610601565b820191906000526020600020905b8154815290600101906020018083116105e457829003601f168201915b505050505081565b60005433600160a060020a0390811691161461062457600080fd5b600a805460a060020a74ff0000000000000000000000000000000000000000199091161773ffffffffffffffffffffffffffffffffffffffff1916600160a060020a0383161790557fcc358699805e9a8b7f77b522628c7cb9abd07d9efb86b6fb616af1609036a99e81604051600160a060020a03909116815260200160405180910390a150565b604060443610156106bc57600080fd5b600a5460a060020a900460ff161561074a57600a54600160a060020a031663aee92d3333858560405160e060020a63ffffffff8616028152600160a060020a0393841660048201529190921660248201526044810191909152606401600060405180830381600087803b151561073157600080fd5b6102c65a03f1151561074257600080fd5b505050610754565b610754838361110e565b505050565b600a5460a060020a900460ff1681565b60005433600160a060020a0390811691161461078457600080fd5b600160a060020a03811660009081526006602052604090819020805460ff191660011790557f42e160154868087d6bfdc0ca23d96a1c1cfa32f1b72ba9ba27b69b98a0d819dc90829051600160a060020a03909116815260200160405180910390a150565b600a5460009060a060020a900460ff161561086857600a54600160a060020a03166318160ddd6000604051602001526040518163ffffffff1660e060020a028152600401602060405180830381600087803b151561084657600080fd5b6102c65a03f1151561085757600080fd5b50505060405180519050905061086d565b506001545b90565b60005460a060020a900460ff161561088757600080fd5b600160a060020a03831660009081526006602052604090205460ff16156108ad57600080fd5b600a5460a060020a900460ff161561092957600a54600160a060020a0316638b477adb3385858560405160e060020a63ffffffff8716028152600160a060020a0394851660048201529284166024840152921660448201526064810191909152608401600060405180830381600087803b151561073157600080fd5b6107548383836111c0565b600a54600160a060020a031681565b60026020526000908152604090205481565b60095481565b60045481565b60015481565b60005433600160a060020a0390811691161461098257600080fd5b60005460a060020a900460ff16151561099a57600080fd5b6000805474ff0000000000000000000000000000000000000000191690557f7805862f689e2f13df9f062ff482ad3ad112aca9e0847911ed832e158c525b3360405160405180910390a1565b600160a060020a03811660009081526006602052604090205460ff165b919050565b600560209081526000928352604080842090915290825290205481565b60005460a060020a900460ff1681565b600a5460009060a060020a900460ff1615610ac557600a54600160a060020a03166370a082318360006040516020015260405160e060020a63ffffffff8416028152600160a060020a039091166004820152602401602060405180830381600087803b1515610aa357600080fd5b6102c65a03f11515610ab457600080fd5b505050604051805190509050610a03565b610ace826113bf565b9050610a03565b60005433600160a060020a03908116911614610af057600080fd5b60005460a060020a900460ff1615610b0757600080fd5b6000805474ff0000000000000000000000000000000000000000191660a060020a1790557f6985a02210a168e66602d3235cb6db0e70f92b3ba4d376a33c0f3d9434bff62560405160405180910390a1565b600054600160a060020a031690565b600054600160a060020a031681565b60088054600181600116156101000203166002900480601f0160208091040260200160405190810160405280929190818152602001828054600181600116156101000203166002900480156106015780601f106105d657610100808354040283529160200191610601565b60005460a060020a900460ff1615610bf957600080fd5b600160a060020a03331660009081526006602052604090205460ff1615610c1f57600080fd5b600a5460a060020a900460ff1615610cad57600a54600160a060020a0316636e18980a33848460405160e060020a63ffffffff8616028152600160a060020a0393841660048201529190921660248201526044810191909152606401600060405180830381600087803b1515610c9457600080fd5b6102c65a03f11515610ca557600080fd5b505050610cb7565b610cb782826113da565b5050565b60005433600160a060020a03908116911614610cd657600080fd5b60148210610ce357600080fd5b60328110610cf057600080fd5b6003829055600954610d0c908290600a0a63ffffffff61155e16565b60048190556003547fb044a1e409eac5c48e5af22d4af52670dd1a99059537a78b31b48c6500a6354e9160405191825260208201526040908101905180910390a15050565b60005433600160a060020a03908116911614610d6c57600080fd5b60015481810111610d7c57600080fd5b60008054600160a060020a031681526002602052604090205481810111610da257600080fd5b60008054600160a060020a03168152600260205260409081902080548301905560018054830190557fcb8241adb0c3fdb35b70c24ce35c5eb0c17af7431c99f827d44a445ca624176a9082905190815260200160405180910390a150565b60005433600160a060020a03908116911614610e1b57600080fd5b60015481901015610e2b57600080fd5b60008054600160a060020a031681526002602052604090205481901015610e5157600080fd5b60018054829003905560008054600160a060020a031681526002602052604090819020805483900390557f702d5967f45f6513a38ffc42d6ba9bf230bd40e8f53b16363c7eb4fd2deb9a449082905190815260200160405180910390a150565b600a5460009060a060020a900460ff1615610f4957600a54600160a060020a031663dd62ed3e848460006040516020015260405160e060020a63ffffffff8516028152600160a060020a03928316600482015291166024820152604401602060405180830381600087803b1515610f2757600080fd5b6102c65a03f11515610f3857600080fd5b505050604051805190509050610f56565b610f538383611594565b90505b92915050565b60035481565b60066020526000908152604090205460ff1681565b60005433600160a060020a03908116911614610f9257600080fd5b600160a060020a03811660009081526006602052604090819020805460ff191690557fd7e9ec6e6ecd65492dce6bf513cd6867560d49544421d0783ddf06e76c24470c90829051600160a060020a03909116815260200160405180910390a150565b60001981565b60005433600160a060020a0390811691161461101557600080fd5b600160a060020a0381161561104d576000805473ffffffffffffffffffffffffffffffffffffffff1916600160a060020a0383161790555b50565b6000805433600160a060020a0390811691161461106c57600080fd5b600160a060020a03821660009081526006602052604090205460ff16151561109357600080fd5b61109c82610a35565b600160a060020a038316600090815260026020526040808220919091556001805483900390559091507f61e6e66b0d6339b2980aecc6ccc0039736791f0ccde9ed512e789a7fbdd698c6908390839051600160a060020a03909216825260208201526040908101905180910390a15050565b6040604436101561111e57600080fd5b81158015906111515750600160a060020a0333811660009081526005602090815260408083209387168352929052205415155b1561115b57600080fd5b600160a060020a03338116600081815260056020908152604080832094881680845294909152908190208590557f8c5be1e5ebec7d5bd14f71427d1e84f3dd0314c0f7b2291e5b200ac8c7c3b9259085905190815260200160405180910390a3505050565b60008080606060643610156111d457600080fd5b600160a060020a0380881660009081526005602090815260408083203390941683529290522054600354909450611226906127109061121a90889063ffffffff61155e16565b9063ffffffff6115bf16565b92506004548311156112385760045492505b60001984101561127a57611252848663ffffffff6115d616565b600160a060020a03808916600090815260056020908152604080832033909416835292905220555b61128a858463ffffffff6115d616565b600160a060020a0388166000908152600260205260409020549092506112b6908663ffffffff6115d616565b600160a060020a0380891660009081526002602052604080822093909355908816815220546112eb908363ffffffff6115e816565b600160a060020a0387166000908152600260205260408120919091558311156113815760008054600160a060020a0316815260026020526040902054611337908463ffffffff6115e816565b60008054600160a060020a03908116825260026020526040808320939093559054811691908916906000805160206115f88339815191529086905190815260200160405180910390a35b85600160a060020a031687600160a060020a03166000805160206115f88339815191528460405190815260200160405180910390a350505050505050565b600160a060020a031660009081526002602052604090205490565b600080604060443610156113ed57600080fd5b61140861271061121a6003548761155e90919063ffffffff16565b925060045483111561141a5760045492505b61142a848463ffffffff6115d616565b600160a060020a033316600090815260026020526040902054909250611456908563ffffffff6115d616565b600160a060020a03338116600090815260026020526040808220939093559087168152205461148b908363ffffffff6115e816565b600160a060020a0386166000908152600260205260408120919091558311156115225760008054600160a060020a03168152600260205260409020546114d7908463ffffffff6115e816565b60008054600160a060020a0390811682526002602052604080832093909355905481169133909116906000805160206115f88339815191529086905190815260200160405180910390a35b84600160a060020a031633600160a060020a03166000805160206115f88339815191528460405190815260200160405180910390a35050505050565b600080831515611571576000915061158d565b5082820282848281151561158157fe5b041461158957fe5b8091505b5092915050565b600160a060020a03918216600090815260056020908152604080832093909416825291909152205490565b60008082848115156115cd57fe5b04949350505050565b6000828211156115e257fe5b50900390565b60008282018381101561158957fe00ddf252ad1be2c89b69c2b068fc378daa952ba7f163c4a11628f55a4df523b3efa165627a7a72305820f0d3fd0d2e96674329938a278360f658be915a7cdb713b1500e65f4da54b46760029",
    "sourcePath": "/home/vallo/Proyectos/decrypto-wallets/test/contracts/usdt/usdt.sol",
    "compiler": {
        "name": "solc",
        "version": "0.4.18+commit.9cf6e910"
    },
    "functionHashes": {
        "MAX_UINT()": "e5b5019a",
        "_totalSupply()": "3eaaf86b",
        "addBlackList(address)": "0ecb93c0",
        "allowance(address,address)": "dd62ed3e",
        "allowed(address,address)": "5c658165",
        "approve(address,uint256)": "095ea7b3",
        "balanceOf(address)": "70a08231",
        "balances(address)": "27e235e3",
        "basisPointsRate()": "dd644f72",
        "decimals()": "313ce567",
        "deprecate(address)": "0753c30c",
        "deprecated()": "0e136b19",
        "destroyBlackFunds(address)": "f3bdc228",
        "getBlackListStatus(address)": "59bf1abe",
        "getOwner()": "893d20e8",
        "isBlackListed(address)": "e47d6060",
        "issue(uint256)": "cc872b66",
        "maximumFee()": "35390714",
        "name()": "06fdde03",
        "owner()": "8da5cb5b",
        "pause()": "8456cb59",
        "paused()": "5c975abb",
        "redeem(uint256)": "db006a75",
        "removeBlackList(address)": "e4997dc5",
        "setParams(uint256,uint256)": "c0324c77",
        "symbol()": "95d89b41",
        "totalSupply()": "18160ddd",
        "transfer(address,uint256)": "a9059cbb",
        "transferFrom(address,address,uint256)": "23b872dd",
        "transferOwnership(address)": "f2fde38b",
        "unpause()": "3f4ba83a",
        "upgradedAddress()": "26976e3f"
    },
    "gasEstimates": {
        "creation": {
            "codeDepositCost": "1139800",
            "executionCost": "infinite",
            "totalCost": "infinite"
        },
        "external": {
            "MAX_UINT()": "877",
            "_totalSupply()": "678",
            "addBlackList(address)": "22177",
            "allowance(address,address)": "infinite",
            "allowed(address,address)": "978",
            "approve(address,uint256)": "infinite",
            "balanceOf(address)": "infinite",
            "balances(address)": "759",
            "basisPointsRate()": "1008",
            "decimals()": "634",
            "deprecate(address)": "22117",
            "deprecated()": "588",
            "destroyBlackFunds(address)": "infinite",
            "getBlackListStatus(address)": "965",
            "getOwner()": "985",
            "isBlackListed(address)": "1189",
            "issue(uint256)": "43644",
            "maximumFee()": "656",
            "name()": "infinite",
            "owner()": "1007",
            "pause()": "22235",
            "paused()": "852",
            "redeem(uint256)": "43672",
            "removeBlackList(address)": "22699",
            "setParams(uint256,uint256)": "infinite",
            "symbol()": "infinite",
            "totalSupply()": "infinite",
            "transfer(address,uint256)": "infinite",
            "transferFrom(address,address,uint256)": "infinite",
            "transferOwnership(address)": "21634",
            "unpause()": "22059",
            "upgradedAddress()": "743"
        }
    }
}